{
  "contractName": "ArtFactoryContent",
  "abi": [
    {
      "constant": true,
      "inputs": [],
      "name": "name",
      "outputs": [
        {
          "name": "",
          "type": "string"
        }
      ],
      "payable": false,
      "stateMutability": "view",
      "type": "function"
    },
    {
      "constant": true,
      "inputs": [],
      "name": "price",
      "outputs": [
        {
          "name": "",
          "type": "uint256"
        }
      ],
      "payable": false,
      "stateMutability": "view",
      "type": "function"
    },
    {
      "constant": true,
      "inputs": [],
      "name": "handle",
      "outputs": [
        {
          "name": "",
          "type": "string"
        }
      ],
      "payable": false,
      "stateMutability": "view",
      "type": "function"
    },
    {
      "inputs": [
        {
          "name": "_name",
          "type": "string"
        },
        {
          "name": "_price",
          "type": "uint256"
        },
        {
          "name": "_handle",
          "type": "string"
        }
      ],
      "payable": true,
      "stateMutability": "payable",
      "type": "constructor"
    },
    {
      "anonymous": false,
      "inputs": [
        {
          "indexed": false,
          "name": "_creator",
          "type": "address"
        },
        {
          "indexed": false,
          "name": "_name",
          "type": "string"
        },
        {
          "indexed": false,
          "name": "_price",
          "type": "uint256"
        }
      ],
      "name": "Publish",
      "type": "event"
    },
    {
      "anonymous": false,
      "inputs": [
        {
          "indexed": false,
          "name": "from",
          "type": "address"
        },
        {
          "indexed": false,
          "name": "value",
          "type": "uint256"
        }
      ],
      "name": "Deposit",
      "type": "event"
    },
    {
      "constant": false,
      "inputs": [],
      "name": "pay",
      "outputs": [
        {
          "name": "",
          "type": "string"
        }
      ],
      "payable": true,
      "stateMutability": "payable",
      "type": "function"
    },
    {
      "constant": false,
      "inputs": [
        {
          "name": "_portal",
          "type": "address"
        }
      ],
      "name": "portalPay",
      "outputs": [],
      "payable": true,
      "stateMutability": "payable",
      "type": "function"
    },
    {
      "constant": true,
      "inputs": [],
      "name": "purchased",
      "outputs": [
        {
          "name": "",
          "type": "bool"
        }
      ],
      "payable": false,
      "stateMutability": "view",
      "type": "function"
    },
    {
      "constant": true,
      "inputs": [],
      "name": "getHandle",
      "outputs": [
        {
          "name": "",
          "type": "string"
        }
      ],
      "payable": false,
      "stateMutability": "view",
      "type": "function"
    },
    {
      "constant": true,
      "inputs": [],
      "name": "viewBalance",
      "outputs": [
        {
          "name": "",
          "type": "uint256"
        }
      ],
      "payable": false,
      "stateMutability": "view",
      "type": "function"
    },
    {
      "constant": false,
      "inputs": [
        {
          "name": "value",
          "type": "uint256"
        }
      ],
      "name": "withdraw",
      "outputs": [],
      "payable": false,
      "stateMutability": "nonpayable",
      "type": "function"
    },
    {
      "constant": false,
      "inputs": [],
      "name": "withdraw",
      "outputs": [],
      "payable": false,
      "stateMutability": "nonpayable",
      "type": "function"
    }
  ],
  "bytecode": "0x60806040526040516200105338038062001053833981018060405281019080805182019291906020018051906020019092919080518201929190505050336000806101000a81548173ffffffffffffffffffffffffffffffffffffffff021916908373ffffffffffffffffffffffffffffffffffffffff160217905550826005908051906020019062000094929190620001ba565b50816006819055508060079080519060200190620000b4929190620001ba565b507f6b4f76656b10c90671a49e83fed10ccbab23caec8fa74840315f484c9a4e0cdb336005600654604051808473ffffffffffffffffffffffffffffffffffffffff1673ffffffffffffffffffffffffffffffffffffffff16815260200180602001838152602001828103825284818154600181600116156101000203166002900481526020019150805460018160011615610100020316600290048015620001a15780601f106200017557610100808354040283529160200191620001a1565b820191906000526020600020905b8154815290600101906020018083116200018357829003601f168201915b505094505050505060405180910390a150505062000269565b828054600181600116156101000203166002900490600052602060002090601f016020900481019282601f10620001fd57805160ff19168380011785556200022e565b828001600101855582156200022e579182015b828111156200022d57825182559160200191906001019062000210565b5b5090506200023d919062000241565b5090565b6200026691905b808211156200026257600081600090555060010162000248565b5090565b90565b610dda80620002796000396000f3006080604052600436106100a4576000357c0100000000000000000000000000000000000000000000000000000000900463ffffffff16806306fdde03146100a95780631b9265b8146101395780632e1a7d4d146101bc5780633ccfd60b146101e95780633ff1e05b1461020057806382b9e8e91461022b578063879f9c9614610261578063a035b1fe14610290578063e16d31b2146102bb578063fd0da0991461034b575b600080fd5b3480156100b557600080fd5b506100be6103db565b6040518080602001828103825283818151815260200191508051906020019080838360005b838110156100fe5780820151818401526020810190506100e3565b50505050905090810190601f16801561012b5780820380516001836020036101000a031916815260200191505b509250505060405180910390f35b610141610479565b6040518080602001828103825283818151815260200191508051906020019080838360005b83811015610181578082015181840152602081019050610166565b50505050905090810190601f1680156101ae5780820380516001836020036101000a031916815260200191505b509250505060405180910390f35b3480156101c857600080fd5b506101e760048036038101908080359060200190929190505050610724565b005b3480156101f557600080fd5b506101fe6107d9565b005b34801561020c57600080fd5b5061021561087b565b6040518082815260200191505060405180910390f35b61025f600480360381019080803573ffffffffffffffffffffffffffffffffffffffff1690602001909291905050506108e0565b005b34801561026d57600080fd5b50610276610b2b565b604051808215151515815260200191505060405180910390f35b34801561029c57600080fd5b506102a5610b7f565b6040518082815260200191505060405180910390f35b3480156102c757600080fd5b506102d0610b85565b6040518080602001828103825283818151815260200191508051906020019080838360005b838110156103105780820151818401526020810190506102f5565b50505050905090810190601f16801561033d5780820380516001836020036101000a031916815260200191505b509250505060405180910390f35b34801561035757600080fd5b50610360610c64565b6040518080602001828103825283818151815260200191508051906020019080838360005b838110156103a0578082015181840152602081019050610385565b50505050905090810190601f1680156103cd5780820380516001836020036101000a031916815260200191505b509250505060405180910390f35b60058054600181600116156101000203166002900480601f0160208091040260200160405190810160405280929190818152602001828054600181600116156101000203166002900480156104715780601f1061044657610100808354040283529160200191610471565b820191906000526020600020905b81548152906001019060200180831161045457829003601f168201915b505050505081565b606034600160003373ffffffffffffffffffffffffffffffffffffffff1673ffffffffffffffffffffffffffffffffffffffff16815260200190815260200160002060008282540192505081905550600654600160003373ffffffffffffffffffffffffffffffffffffffff1673ffffffffffffffffffffffffffffffffffffffff168152602001908152602001600020541015156105cc576001600260003373ffffffffffffffffffffffffffffffffffffffff1673ffffffffffffffffffffffffffffffffffffffff16815260200190815260200160002060006101000a81548160ff0219169083151502179055506007600360003373ffffffffffffffffffffffffffffffffffffffff1673ffffffffffffffffffffffffffffffffffffffff16815260200190815260200160002090805460018160011615610100020316600290046105ca929190610d02565b505b346004600082825401925050819055507fe1fffcc4923d04b559f4d29a8bfc6cda04eb5b0d3c460751c2402c5c5cc9109c3334604051808373ffffffffffffffffffffffffffffffffffffffff1673ffffffffffffffffffffffffffffffffffffffff1681526020018281526020019250505060405180910390a1600360003373ffffffffffffffffffffffffffffffffffffffff1673ffffffffffffffffffffffffffffffffffffffff1681526020019081526020016000208054600181600116156101000203166002900480601f01602080910402602001604051908101604052809291908181526020018280546001816001161561010002031660029004801561071a5780601f106106ef5761010080835404028352916020019161071a565b820191906000526020600020905b8154815290600101906020018083116106fd57829003601f168201915b5050505050905090565b6000809054906101000a900473ffffffffffffffffffffffffffffffffffffffff1673ffffffffffffffffffffffffffffffffffffffff163373ffffffffffffffffffffffffffffffffffffffff1614151561077f57600080fd5b600454811115156107d6573373ffffffffffffffffffffffffffffffffffffffff166108fc829081150290604051600060405180830381858888f19350505050156107d557806004600082825403925050819055505b5b50565b6000809054906101000a900473ffffffffffffffffffffffffffffffffffffffff1673ffffffffffffffffffffffffffffffffffffffff163373ffffffffffffffffffffffffffffffffffffffff1614151561083457600080fd5b3373ffffffffffffffffffffffffffffffffffffffff166108fc6004549081150290604051600060405180830381858888f19350505050156108795760006004819055505b565b60008060009054906101000a900473ffffffffffffffffffffffffffffffffffffffff1673ffffffffffffffffffffffffffffffffffffffff163373ffffffffffffffffffffffffffffffffffffffff161415156108d857600080fd5b600454905090565b6000806064348115156108ef57fe5b0491506064348115156108fe57fe5b04340390503481830114151561091357600080fd5b600115158373ffffffffffffffffffffffffffffffffffffffff166108fc849081150290604051600060405180830381858888f19350505050151514151561095a57600080fd5b34600160003373ffffffffffffffffffffffffffffffffffffffff1673ffffffffffffffffffffffffffffffffffffffff16815260200190815260200160002060008282540192505081905550600654600160003373ffffffffffffffffffffffffffffffffffffffff1673ffffffffffffffffffffffffffffffffffffffff16815260200190815260200160002054101515610aab576001600260003373ffffffffffffffffffffffffffffffffffffffff1673ffffffffffffffffffffffffffffffffffffffff16815260200190815260200160002060006101000a81548160ff0219169083151502179055506007600360003373ffffffffffffffffffffffffffffffffffffffff1673ffffffffffffffffffffffffffffffffffffffff1681526020019081526020016000209080546001816001161561010002031660029004610aa9929190610d02565b505b346004600082825401925050819055507fe1fffcc4923d04b559f4d29a8bfc6cda04eb5b0d3c460751c2402c5c5cc9109c3334604051808373ffffffffffffffffffffffffffffffffffffffff1673ffffffffffffffffffffffffffffffffffffffff1681526020018281526020019250505060405180910390a1505050565b6000600260003373ffffffffffffffffffffffffffffffffffffffff1673ffffffffffffffffffffffffffffffffffffffff16815260200190815260200160002060009054906101000a900460ff16905090565b60065481565b6060600360003373ffffffffffffffffffffffffffffffffffffffff1673ffffffffffffffffffffffffffffffffffffffff1681526020019081526020016000208054600181600116156101000203166002900480601f016020809104026020016040519081016040528092919081815260200182805460018160011615610100020316600290048015610c5a5780601f10610c2f57610100808354040283529160200191610c5a565b820191906000526020600020905b815481529060010190602001808311610c3d57829003601f168201915b5050505050905090565b60078054600181600116156101000203166002900480601f016020809104026020016040519081016040528092919081815260200182805460018160011615610100020316600290048015610cfa5780601f10610ccf57610100808354040283529160200191610cfa565b820191906000526020600020905b815481529060010190602001808311610cdd57829003601f168201915b505050505081565b828054600181600116156101000203166002900490600052602060002090601f016020900481019282601f10610d3b5780548555610d78565b82800160010185558215610d7857600052602060002091601f016020900482015b82811115610d77578254825591600101919060010190610d5c565b5b509050610d859190610d89565b5090565b610dab91905b80821115610da7576000816000905550600101610d8f565b5090565b905600a165627a7a72305820900df162bc59a491eb9367d3d9e5e4926bd66777d1399ac92e99cfb05b94cf4f0029",
  "source": "pragma solidity ^0.4.15;\n\ncontract ArtFactoryContent {\n\t// internal variables\n\taddress creator;\n\tmapping (address => uint) amountPaid;\n\tmapping (address => bool) paid;\n  mapping (address => string) handles;\n  uint balance;\n\n\t// public variables\n\tstring public name;\n\tuint public price;\n  string public handle;\n\n  // log the Publish events\n  event Publish(address _creator, string _name, uint _price);\n\n  // log the Deposit events\n  event Deposit(address from, uint value);\n\n  // content creation\n\tconstructor (string _name, uint _price, string _handle) public payable {\n\t\tcreator = msg.sender;\n\t\tname = _name;\n\t\tprice = _price; // zero if not provided\n    handle = _handle;\n\n\t\temit Publish(msg.sender, name, price);\n\t}\n\n\t// payment transaction\n  function pay() public payable returns (string) {\n    // add to value associated with payer\n  \tamountPaid[msg.sender] += msg.value;\n\n    // if reached purchase threshold, set state to paid and re-encrypt/store content\n  \tif (amountPaid[msg.sender] >= price) {\n  \t\tpaid[msg.sender] = true;\n\n      handles[msg.sender] = handle; // will be encrypted individually for each consumer\n  \t}\n\n    // add to the contract balance\n    balance += msg.value;\n\n  \t// send notification deposit is complete\n    emit Deposit(msg.sender, msg.value);\n\n    return handles[msg.sender];\n  }\n\n  // payment transaction via curator\n  function portalPay(address _portal)public payable {\n    // 1% to the portal\n    uint portalPayAmount = msg.value/100;\n    // 99% to the creator\n    uint creatorPayAmount = msg.value - msg.value/100;\n\n    if (portalPayAmount + creatorPayAmount != msg.value) {\n      // return funds when the creator/portal split creates an unwanted remainder\n      revert();\n    }\n\n    // send one percent to referring portal\n    // do not handle the case if send() has been overridden and fails\n    if (_portal.send(portalPayAmount) != true) revert();\n\n    // add to value associated with payer\n    amountPaid[msg.sender] += msg.value;\n\n    // if reached purchase threshold, set state to paid and re-encrypt/store content\n    if (amountPaid[msg.sender] >= price) {\n      paid[msg.sender] = true;\n\n      handles[msg.sender] = handle; // will be encrypted individually for each consumer\n    }\n\n    // add to the contract balance\n    balance += msg.value;\n\n    // send notification deposit is complete\n    emit Deposit(msg.sender, msg.value);\n  }\n\n\tfunction purchased() public constant returns(bool) {\n\t\treturn paid[msg.sender];\n\t}\n\n  function getHandle() public constant returns(string) {\n    return handles[msg.sender];\n  }\n\n  // return balance\n  function viewBalance() public constant returns(uint) {\n    if (msg.sender != creator) revert();\n\n    return balance;\n  }\n\n  // function viewAllMedia() public constant returns(){\n  //   //returns dynamic array\n  // }\n\n  // withdraw complete balance\n  function withdraw() public {\n    if (msg.sender != creator) revert();\n\n    // do not handle the case if send() has been overridden and fails\n    if (msg.sender.send(balance)) {\n      balance = 0;\n    }\n  }\n\n  // withdraw up to complete balance\n  function withdraw(uint value) public {\n    if (msg.sender != creator) revert();\n\n    if (value <= balance) {\n      // do not handle the case if send() has been overridden and fails\n      if (msg.sender.send(value)) {\n        balance -= value;\n      }\n    }\n  }\n}\n",
  "sourcePath": "/Users/temitopealabi/Documents/consensysApps/artfactory/reactFactory/contracts/ArtFactoryContent.sol",
  "compiler": {
    "name": "solc",
    "version": "0.4.24+commit.e67f0147.Emscripten.clang"
  },
  "schemaVersion": "2.0.1",
  "updatedAt": "2018-10-20T06:08:35.573Z"
}